{
    "contractName": "DCACore2",
    "abi": [
        {
            "inputs": [
                {
                    "internalType": "address",
                    "name": "_uniRouter",
                    "type": "address"
                },
                {
                    "internalType": "address",
                    "name": "_executor",
                    "type": "address"
                },
                {
                    "internalType": "address",
                    "name": "_weth",
                    "type": "address"
                }
            ],
            "stateMutability": "nonpayable",
            "type": "constructor"
        },
        {
            "anonymous": false,
            "inputs": [
                {
                    "indexed": true,
                    "internalType": "address",
                    "name": "tokenIn",
                    "type": "address"
                },
                {
                    "indexed": true,
                    "internalType": "address",
                    "name": "tokenOut",
                    "type": "address"
                },
                {
                    "indexed": true,
                    "internalType": "bool",
                    "name": "allowed",
                    "type": "bool"
                }
            ],
            "name": "AllowedTokenPairSet",
            "type": "event"
        },
        {
            "anonymous": false,
            "inputs": [
                {
                    "indexed": true,
                    "internalType": "uint256",
                    "name": "positionId",
                    "type": "uint256"
                },
                {
                    "indexed": true,
                    "internalType": "uint256",
                    "name": "amount",
                    "type": "uint256"
                }
            ],
            "name": "Deposit",
            "type": "event"
        },
        {
            "anonymous": false,
            "inputs": [
                {
                    "indexed": true,
                    "internalType": "uint256",
                    "name": "positionId",
                    "type": "uint256"
                }
            ],
            "name": "ExecuteDCA",
            "type": "event"
        },
        {
            "anonymous": false,
            "inputs": [
                {
                    "indexed": true,
                    "internalType": "uint256",
                    "name": "minSlippage",
                    "type": "uint256"
                }
            ],
            "name": "MinSlippageSet",
            "type": "event"
        },
        {
            "anonymous": false,
            "inputs": [
                {
                    "indexed": true,
                    "internalType": "address",
                    "name": "previousOwner",
                    "type": "address"
                },
                {
                    "indexed": true,
                    "internalType": "address",
                    "name": "newOwner",
                    "type": "address"
                }
            ],
            "name": "OwnershipTransferred",
            "type": "event"
        },
        {
            "anonymous": false,
            "inputs": [
                {
                    "indexed": false,
                    "internalType": "address",
                    "name": "account",
                    "type": "address"
                }
            ],
            "name": "Paused",
            "type": "event"
        },
        {
            "anonymous": false,
            "inputs": [
                {
                    "indexed": true,
                    "internalType": "bool",
                    "name": "paused",
                    "type": "bool"
                }
            ],
            "name": "PausedSet",
            "type": "event"
        },
        {
            "anonymous": false,
            "inputs": [
                {
                    "indexed": true,
                    "internalType": "uint256",
                    "name": "positionId",
                    "type": "uint256"
                },
                {
                    "indexed": true,
                    "internalType": "address",
                    "name": "owner",
                    "type": "address"
                },
                {
                    "indexed": false,
                    "internalType": "address",
                    "name": "tokenIn",
                    "type": "address"
                },
                {
                    "indexed": false,
                    "internalType": "address",
                    "name": "tokenOut",
                    "type": "address"
                },
                {
                    "indexed": false,
                    "internalType": "uint256",
                    "name": "amountDCA",
                    "type": "uint256"
                },
                {
                    "indexed": false,
                    "internalType": "uint256",
                    "name": "intervalDCA",
                    "type": "uint256"
                },
                {
                    "indexed": false,
                    "internalType": "uint256",
                    "name": "maxSlippage",
                    "type": "uint256"
                }
            ],
            "name": "PositionCreated",
            "type": "event"
        },
        {
            "anonymous": false,
            "inputs": [
                {
                    "indexed": true,
                    "internalType": "uint256",
                    "name": "positionId",
                    "type": "uint256"
                },
                {
                    "indexed": true,
                    "internalType": "uint256",
                    "name": "amountDCA",
                    "type": "uint256"
                },
                {
                    "indexed": true,
                    "internalType": "uint256",
                    "name": "intervalDCA",
                    "type": "uint256"
                }
            ],
            "name": "PositionUpdated",
            "type": "event"
        },
        {
            "anonymous": false,
            "inputs": [
                {
                    "indexed": false,
                    "internalType": "address",
                    "name": "account",
                    "type": "address"
                }
            ],
            "name": "Unpaused",
            "type": "event"
        },
        {
            "anonymous": false,
            "inputs": [
                {
                    "indexed": true,
                    "internalType": "uint256",
                    "name": "positionId",
                    "type": "uint256"
                },
                {
                    "indexed": true,
                    "internalType": "uint256",
                    "name": "amount",
                    "type": "uint256"
                }
            ],
            "name": "WithdrawTokenIn",
            "type": "event"
        },
        {
            "anonymous": false,
            "inputs": [
                {
                    "indexed": true,
                    "internalType": "uint256",
                    "name": "positionId",
                    "type": "uint256"
                },
                {
                    "indexed": true,
                    "internalType": "uint256",
                    "name": "amount",
                    "type": "uint256"
                }
            ],
            "name": "WithdrawTokenOut",
            "type": "event"
        },
        {
            "inputs": [],
            "name": "NATIVE_TOKEN",
            "outputs": [
                {
                    "internalType": "address",
                    "name": "",
                    "type": "address"
                }
            ],
            "stateMutability": "view",
            "type": "function"
        },
        {
            "inputs": [
                {
                    "internalType": "address",
                    "name": "",
                    "type": "address"
                },
                {
                    "internalType": "address",
                    "name": "",
                    "type": "address"
                }
            ],
            "name": "allowedTokenPairs",
            "outputs": [
                {
                    "internalType": "bool",
                    "name": "",
                    "type": "bool"
                }
            ],
            "stateMutability": "view",
            "type": "function"
        },
        {
            "inputs": [
                {
                    "internalType": "address",
                    "name": "_tokenIn",
                    "type": "address"
                },
                {
                    "internalType": "address",
                    "name": "_tokenOut",
                    "type": "address"
                },
                {
                    "internalType": "uint256",
                    "name": "_amountIn",
                    "type": "uint256"
                },
                {
                    "internalType": "uint256",
                    "name": "_amountDCA",
                    "type": "uint256"
                },
                {
                    "internalType": "uint256",
                    "name": "_intervalDCA",
                    "type": "uint256"
                },
                {
                    "internalType": "uint256",
                    "name": "_maxSlippage",
                    "type": "uint256"
                },
                {
                    "internalType": "uint256",
                    "name": "_maxGasPrice",
                    "type": "uint256"
                }
            ],
            "name": "createPositionAndDeposit",
            "outputs": [],
            "stateMutability": "payable",
            "type": "function"
        },
        {
            "inputs": [
                {
                    "internalType": "uint256",
                    "name": "_positionId",
                    "type": "uint256"
                },
                {
                    "internalType": "uint256",
                    "name": "_amount",
                    "type": "uint256"
                }
            ],
            "name": "deposit",
            "outputs": [],
            "stateMutability": "nonpayable",
            "type": "function"
        },
        {
            "inputs": [
                {
                    "internalType": "uint256",
                    "name": "_positionId",
                    "type": "uint256"
                }
            ],
            "name": "depositETH",
            "outputs": [],
            "stateMutability": "payable",
            "type": "function"
        },
        {
            "inputs": [
                {
                    "internalType": "uint256",
                    "name": "_positionId",
                    "type": "uint256"
                }
            ],
            "name": "executeDCA",
            "outputs": [],
            "stateMutability": "nonpayable",
            "type": "function"
        },
        {
            "inputs": [],
            "name": "executor",
            "outputs": [
                {
                    "internalType": "address",
                    "name": "",
                    "type": "address"
                }
            ],
            "stateMutability": "view",
            "type": "function"
        },
        {
            "inputs": [
                {
                    "internalType": "uint256",
                    "name": "_positionId",
                    "type": "uint256"
                }
            ],
            "name": "exit",
            "outputs": [],
            "stateMutability": "nonpayable",
            "type": "function"
        },
        {
            "inputs": [],
            "name": "minSlippage",
            "outputs": [
                {
                    "internalType": "uint256",
                    "name": "",
                    "type": "uint256"
                }
            ],
            "stateMutability": "view",
            "type": "function"
        },
        {
            "inputs": [],
            "name": "owner",
            "outputs": [
                {
                    "internalType": "address",
                    "name": "",
                    "type": "address"
                }
            ],
            "stateMutability": "view",
            "type": "function"
        },
        {
            "inputs": [],
            "name": "paused",
            "outputs": [
                {
                    "internalType": "bool",
                    "name": "",
                    "type": "bool"
                }
            ],
            "stateMutability": "view",
            "type": "function"
        },
        {
            "inputs": [
                {
                    "internalType": "uint256",
                    "name": "",
                    "type": "uint256"
                }
            ],
            "name": "positions",
            "outputs": [
                {
                    "internalType": "uint256",
                    "name": "id",
                    "type": "uint256"
                },
                {
                    "internalType": "address",
                    "name": "owner",
                    "type": "address"
                },
                {
                    "internalType": "address",
                    "name": "tokenIn",
                    "type": "address"
                },
                {
                    "internalType": "address",
                    "name": "tokenOut",
                    "type": "address"
                },
                {
                    "internalType": "uint256",
                    "name": "balanceIn",
                    "type": "uint256"
                },
                {
                    "internalType": "uint256",
                    "name": "balanceOut",
                    "type": "uint256"
                },
                {
                    "internalType": "uint256",
                    "name": "amountDCA",
                    "type": "uint256"
                },
                {
                    "internalType": "uint256",
                    "name": "intervalDCA",
                    "type": "uint256"
                },
                {
                    "internalType": "uint256",
                    "name": "lastDCA",
                    "type": "uint256"
                },
                {
                    "internalType": "uint256",
                    "name": "maxSlippage",
                    "type": "uint256"
                },
                {
                    "internalType": "uint256",
                    "name": "maxGasPrice",
                    "type": "uint256"
                }
            ],
            "stateMutability": "view",
            "type": "function"
        },
        {
            "inputs": [],
            "name": "renounceOwnership",
            "outputs": [],
            "stateMutability": "nonpayable",
            "type": "function"
        },
        {
            "inputs": [
                {
                    "internalType": "address",
                    "name": "_tokenIn",
                    "type": "address"
                },
                {
                    "internalType": "address",
                    "name": "_tokenOut",
                    "type": "address"
                },
                {
                    "internalType": "bool",
                    "name": "_allowed",
                    "type": "bool"
                }
            ],
            "name": "setAllowedTokenPair",
            "outputs": [],
            "stateMutability": "nonpayable",
            "type": "function"
        },
        {
            "inputs": [
                {
                    "internalType": "address[]",
                    "name": "_tokenIns",
                    "type": "address[]"
                },
                {
                    "internalType": "address[]",
                    "name": "_tokenOuts",
                    "type": "address[]"
                },
                {
                    "internalType": "bool[]",
                    "name": "_alloweds",
                    "type": "bool[]"
                }
            ],
            "name": "setAllowedTokenPairs",
            "outputs": [],
            "stateMutability": "nonpayable",
            "type": "function"
        },
        {
            "inputs": [
                {
                    "internalType": "uint256",
                    "name": "_minSlippage",
                    "type": "uint256"
                }
            ],
            "name": "setMinSlippage",
            "outputs": [],
            "stateMutability": "nonpayable",
            "type": "function"
        },
        {
            "inputs": [
                {
                    "internalType": "address",
                    "name": "newOwner",
                    "type": "address"
                }
            ],
            "name": "transferOwnership",
            "outputs": [],
            "stateMutability": "nonpayable",
            "type": "function"
        },
        {
            "inputs": [],
            "name": "uniRouter",
            "outputs": [
                {
                    "internalType": "contract IUniswapV2Router",
                    "name": "",
                    "type": "address"
                }
            ],
            "stateMutability": "view",
            "type": "function"
        },
        {
            "inputs": [
                {
                    "internalType": "uint256",
                    "name": "_positionId",
                    "type": "uint256"
                },
                {
                    "internalType": "uint256",
                    "name": "_amountDCA",
                    "type": "uint256"
                },
                {
                    "internalType": "uint256",
                    "name": "_intervalDCA",
                    "type": "uint256"
                }
            ],
            "name": "updatePosition",
            "outputs": [],
            "stateMutability": "nonpayable",
            "type": "function"
        },
        {
            "inputs": [],
            "name": "weth",
            "outputs": [
                {
                    "internalType": "address",
                    "name": "",
                    "type": "address"
                }
            ],
            "stateMutability": "view",
            "type": "function"
        },
        {
            "inputs": [
                {
                    "internalType": "uint256",
                    "name": "_positionId",
                    "type": "uint256"
                },
                {
                    "internalType": "uint256",
                    "name": "_amount",
                    "type": "uint256"
                }
            ],
            "name": "withdrawTokenIn",
            "outputs": [],
            "stateMutability": "nonpayable",
            "type": "function"
        },
        {
            "inputs": [
                {
                    "internalType": "uint256",
                    "name": "_positionId",
                    "type": "uint256"
                }
            ],
            "name": "withdrawTokenOut",
            "outputs": [],
            "stateMutability": "nonpayable",
            "type": "function"
        },
        {
            "stateMutability": "payable",
            "type": "receive"
        }
    ],
    "bytecode": "60a060405260196005553480156200001657600080fd5b50604051620027d8380380620027d88339810160408190526200003991620000f8565b62000044336200008b565b6000805460ff60a01b19169055600280546001600160a01b03199081166001600160a01b039586161790915560038054909116928416929092179091551660805262000142565b600080546001600160a01b038381166001600160a01b0319831681178455604051919092169283917f8be0079c531659141344cd1fd0a4f28419497f9722a3daafe3b4186f6b6457e09190a35050565b80516001600160a01b0381168114620000f357600080fd5b919050565b6000806000606084860312156200010e57600080fd5b6200011984620000db565b92506200012960208501620000db565b91506200013960408501620000db565b90509250925092565b60805161265062000188600039600081816101fe01528181610b9701528181610c6401528181610eb601528181610ed901528181611c8c0152611cd901526126506000f3fe6080604052600436106101395760003560e01c8063715018a6116100ab578063a3849c261161006f578063a3849c26146103c6578063c0677c4714610401578063c34c08e514610425578063e2bbb15814610445578063e3e01f9f14610465578063f2fde38b1461048557600080fd5b8063715018a6146102d15780637f8661a1146102e65780638da5cb5b1461030657806399fbab8814610324578063a0e47bf6146103a657600080fd5b80635358fbda116100fd5780635358fbda14610220578063536b622b146102335780635adfadbd146102535780635c975abb146102665780635fc1fd01146102915780636c7e8e38146102b157600080fd5b80630602e13a146101455780631f7d56891461016757806321f625501461018757806331f7d964146101a75780633fc8cef3146101ec57600080fd5b3661014057005b600080fd5b34801561015157600080fd5b5061016561016036600461204c565b6104a5565b005b34801561017357600080fd5b50610165610182366004612078565b61058f565b34801561019357600080fd5b506101656101a23660046120bb565b610970565b3480156101b357600080fd5b506101cf73eeeeeeeeeeeeeeeeeeeeeeeeeeeeeeeeeeeeeeee81565b6040516001600160a01b0390911681526020015b60405180910390f35b3480156101f857600080fd5b506101cf7f000000000000000000000000000000000000000000000000000000000000000081565b61016561022e366004612078565b610b23565b34801561023f57600080fd5b5061016561024e36600461214e565b610d1a565b6101656102613660046121e8565b610e62565b34801561027257600080fd5b50600054600160a01b900460ff165b60405190151581526020016101e3565b34801561029d57600080fd5b506101656102ac366004612078565b611411565b3480156102bd57600080fd5b506101656102cc366004612246565b611517565b3480156102dd57600080fd5b50610165611619565b3480156102f257600080fd5b50610165610301366004612078565b61164f565b34801561031257600080fd5b506000546001600160a01b03166101cf565b34801561033057600080fd5b5061034461033f366004612078565b611742565b604080519b8c526001600160a01b039a8b1660208d0152988a16988b0198909852979095166060890152608088019390935260a087019190915260c086015260e0850152610100840152610120830191909152610140820152610160016101e3565b3480156103b257600080fd5b506002546101cf906001600160a01b031681565b3480156103d257600080fd5b506102816103e1366004612268565b600460209081526000928352604080842090915290825290205460ff1681565b34801561040d57600080fd5b5061041760055481565b6040519081526020016101e3565b34801561043157600080fd5b506003546101cf906001600160a01b031681565b34801561045157600080fd5b50610165610460366004612246565b6117bb565b34801561047157600080fd5b50610165610480366004612078565b6118e8565b34801561049157600080fd5b506101656104a036600461229b565b6119d7565b6000821180156104b65750603c8110155b6104f85760405162461bcd60e51b815260206004820152600e60248201526d496e76616c696420696e7075747360901b60448201526064015b60405180910390fd5b60006001848154811061050d5761050d6122b6565b60009182526020909120600b9091020160018101549091506001600160a01b0316331461054c5760405162461bcd60e51b81526004016104ef906122cc565b60068101839055600781018290556040518290849086907ff89185fe8013045e431c4a2d209bdc8367e67b3aee3359fde091b6ce08e6055090600090a450505050565b6003546001600160a01b031633146105d95760405162461bcd60e51b815260206004820152600d60248201526c27b7363c9022bc32b1baba37b960991b60448201526064016104ef565b600054600160a01b900460ff16156106035760405162461bcd60e51b81526004016104ef906122fa565b600060018281548110610618576106186122b6565b600091825260208083206040805161016081018252600b9094029091018054845260018101546001600160a01b039081169385019390935260028101548316918401919091526003810154909116606083015260048101546080830152600581015460a0830152600681015460c0830152600781015460e083015260088101546101008301526009810154610120830152600a810154610140830152925081906106c190611a72565b915091508181906106e55760405162461bcd60e51b81526004016104ef9190612350565b50604080516002808252606082018352600092602083019080368337505050600285015481519192506001600160a01b0316908290600090610729576107296122b6565b6001600160a01b039283166020918202929092010152600385015482519116908290600190811061075c5761075c6122b6565b6001600160a01b039283166020918202929092010152600254600686015460405163d06ca61f60e01b8152600093929092169163d06ca61f916107a39186906004016123dd565b600060405180830381865afa1580156107c0573d6000803e3d6000fd5b505050506040513d6000823e601f3d908101601f191682016040526107e891908101906123f6565b42600887015560068601546004870154919250610804916124ca565b6004868101919091556002808701549054600688015460405163095ea7b360e01b81526001600160a01b03928316948101949094526024840152169063095ea7b3906044016020604051808303816000875af1158015610868573d6000803e3d6000fd5b505050506040513d601f19601f8201168201806040525081019061088c91906124e1565b5060006127108660090154836001815181106108aa576108aa6122b6565b60200260200101516108bc91906124fe565b6108c6919061251d565b826001815181106108d9576108d96122b6565b60200260200101516108eb91906124ca565b905060006108fe87600601548386611b8f565b9050806001825161090f91906124ca565b8151811061091f5761091f6122b6565b60200260200101518760050154610936919061253f565b600588015560405188907f5bb565891cdb0665549473a4769ba02776a03522dede22b5ebc9d9270aa56c8b90600090a25050505050505050565b6000546001600160a01b0316331461099a5760405162461bcd60e51b81526004016104ef90612557565b816001600160a01b0316836001600160a01b0316036109ee5760405162461bcd60e51b815260206004820152601060248201526f4475706c696361746520746f6b656e7360801b60448201526064016104ef565b6001600160a01b0380841660009081526004602090815260408083209386168352929052205481151560ff909116151503610a615760405162461bcd60e51b815260206004820152601360248201527253616d65205f616c6c6f7765642076616c756560681b60448201526064016104ef565b6001600160a01b038084166000818152600460208181526040808420958816808552958252808420805488151560ff199182168117909255938352818520868652909252808420805490931682179092559051909392917facf0e2c892e663766e5952a5bb052e90b35734aaf57c14106b8ab7c16a1963d391a4801515836001600160a01b0316836001600160a01b03167facf0e2c892e663766e5952a5bb052e90b35734aaf57c14106b8ab7c16a1963d360405160405180910390a4505050565b600054600160a01b900460ff1615610b4d5760405162461bcd60e51b81526004016104ef906122fa565b60003411610b955760405162461bcd60e51b815260206004820152601560248201527406d73672e76616c7565206d757374206265203e203605c1b60448201526064016104ef565b7f00000000000000000000000000000000000000000000000000000000000000006001600160a01b031663d0e30db0346040518263ffffffff1660e01b81526004016000604051808303818588803b158015610bf057600080fd5b505af1158015610c04573d6000803e3d6000fd5b5050505050600060018281548110610c1e57610c1e6122b6565b60009182526020909120600b9091020160018101549091506001600160a01b03163314610c5d5760405162461bcd60e51b81526004016104ef906122cc565b60028101547f00000000000000000000000000000000000000000000000000000000000000006001600160a01b03908116911614610cd45760405162461bcd60e51b81526020600482015260146024820152730e8ded6cadc92dc40daeae6e840c4ca40ae8aa8960631b60448201526064016104ef565b348160040154610ce4919061253f565b6004820155604051349083907fa3af609bf46297028ce551832669030f9effef2b02606d02cbbcc40fe6b47c5590600090a35050565b6000546001600160a01b03163314610d445760405162461bcd60e51b81526004016104ef90612557565b848314610d845760405162461bcd60e51b815260206004820152600e60248201526d092dcecc2d8d2c840d8cadccee8d60931b60448201526064016104ef565b848114610dc45760405162461bcd60e51b815260206004820152600e60248201526d092dcecc2d8d2c840d8cadccee8d60931b60448201526064016104ef565b60005b85811015610e5957610e47878783818110610de457610de46122b6565b9050602002016020810190610df9919061229b565b868684818110610e0b57610e0b6122b6565b9050602002016020810190610e20919061229b565b858585818110610e3257610e326122b6565b90506020020160208101906101a2919061258c565b80610e51816125a9565b915050610dc7565b50505050505050565b600054600160a01b900460ff1615610e8c5760405162461bcd60e51b81526004016104ef906122fa565b60008073eeeeeeeeeeeeeeeeeeeeeeeeeeeeeeeeeeeeeeed196001600160a01b038a1601610f53577f000000000000000000000000000000000000000000000000000000000000000090507f00000000000000000000000000000000000000000000000000000000000000006001600160a01b031663d0e30db0346040518263ffffffff1660e01b81526004016000604051808303818588803b158015610f3257600080fd5b505af1158015610f46573d6000803e3d6000fd5b5050505050349150610f6e565b5087610f6a6001600160a01b03821633308a611c19565b8691505b6001600160a01b038082166000908152600460209081526040808320938c168352929052205460ff16610fd65760405162461bcd60e51b815260206004820152601060248201526f14185a5c881b9bdd08185b1b1bddd95960821b60448201526064016104ef565b600082118015610fe65750600086115b8015610ff35750603c8510155b801561100157506005548410155b61103e5760405162461bcd60e51b815260206004820152600e60248201526d496e76616c696420696e7075747360901b60448201526064016104ef565b8582101561108e5760405162461bcd60e51b815260206004820152601a60248201527f4465706f73697420666f72206174206c6561737420312044434100000000000060448201526064016104ef565b6111066040518061016001604052806000815260200160006001600160a01b0316815260200160006001600160a01b0316815260200160006001600160a01b03168152602001600081526020016000815260200160008152602001600081526020016000815260200160008152602001600081525090565b60015481523360208201526001600160a01b038281166040830152891660608201526080810183905260c0810187905260e08101869052610120810185905261115384633b9aca006124fe565b61014082019081526001805480820182556000919091528251600b9091027fb10e2d527612073b26eecdfd717e6a320cf44b4afac2b0732d9fcbe2b7fa0cf6810182905560208401517fb10e2d527612073b26eecdfd717e6a320cf44b4afac2b0732d9fcbe2b7fa0cf7820180546001600160a01b039283166001600160a01b0319918216179091556040808701517fb10e2d527612073b26eecdfd717e6a320cf44b4afac2b0732d9fcbe2b7fa0cf88501805491851691841691909117905560608701517fb10e2d527612073b26eecdfd717e6a320cf44b4afac2b0732d9fcbe2b7fa0cf9850180549190941692169190911790915560808501517fb10e2d527612073b26eecdfd717e6a320cf44b4afac2b0732d9fcbe2b7fa0cfa83015560a08501517fb10e2d527612073b26eecdfd717e6a320cf44b4afac2b0732d9fcbe2b7fa0cfb83015560c08501517fb10e2d527612073b26eecdfd717e6a320cf44b4afac2b0732d9fcbe2b7fa0cfc83015560e08501517fb10e2d527612073b26eecdfd717e6a320cf44b4afac2b0732d9fcbe2b7fa0cfd8301556101008501517fb10e2d527612073b26eecdfd717e6a320cf44b4afac2b0732d9fcbe2b7fa0cfe8301556101208501517fb10e2d527612073b26eecdfd717e6a320cf44b4afac2b0732d9fcbe2b7fa0cff83015592517fb10e2d527612073b26eecdfd717e6a320cf44b4afac2b0732d9fcbe2b7fa0d009091015590513391907f696d2d19da458c778c12a8dcf4d3c2bf2defc825c1190001848c7215adfaa036906113cf9086908e908d908d908d906001600160a01b03958616815293909416602084015260408301919091526060820152608081019190915260a00190565b60405180910390a380516040518491907fa3af609bf46297028ce551832669030f9effef2b02606d02cbbcc40fe6b47c5590600090a350505050505050505050565b600060018281548110611426576114266122b6565b60009182526020909120600b9091020160018101549091506001600160a01b031633146114655760405162461bcd60e51b81526004016104ef906122cc565b60008160050154116114b95760405162461bcd60e51b815260206004820152601c60248201527f44434120617373657420616d6f756e74206d757374206265203e20300000000060448201526064016104ef565b6005810180546000909155600182015460038301546114e5916001600160a01b03908116911683611c8a565b604051819084907f6a324877d6008b3848fbf784c69522147bc56d6452697edad43829d7531f225c90600090a3505050565b6000811161155d5760405162461bcd60e51b815260206004820152601360248201527205f616d6f756e74206d757374206265203e203606c1b60448201526064016104ef565b600060018381548110611572576115726122b6565b60009182526020909120600b9091020160018101549091506001600160a01b031633146115b15760405162461bcd60e51b81526004016104ef906122cc565b8181600401546115c191906124ca565b6004820155600181015460028201546115e7916001600160a01b03908116911684611c8a565b604051829084907f2ad504baa60f8517d2327c764d6fe1150d2acbbdcc67ccccf34d0ac9492d5e6990600090a3505050565b6000546001600160a01b031633146116435760405162461bcd60e51b81526004016104ef90612557565b61164d6000611def565b565b600060018281548110611664576116646122b6565b60009182526020909120600b9091020160018101549091506001600160a01b031633146116a35760405162461bcd60e51b81526004016104ef906122cc565b600481015415611708576004810180546000909155600182015460028301546116d9916001600160a01b03908116911683611c8a565b604051819084907f2ad504baa60f8517d2327c764d6fe1150d2acbbdcc67ccccf34d0ac9492d5e6990600090a3505b60058101541561173e576005810180546000909155600182015460038301546114e5916001600160a01b03908116911683611c8a565b5050565b6001818154811061175257600080fd5b60009182526020909120600b9091020180546001820154600283015460038401546004850154600586015460068701546007880154600889015460098a0154600a909a0154989a506001600160a01b03978816999688169897909516969395929491939092908b565b600054600160a01b900460ff16156117e55760405162461bcd60e51b81526004016104ef906122fa565b6000811161182b5760405162461bcd60e51b815260206004820152601360248201527205f616d6f756e74206d757374206265203e203606c1b60448201526064016104ef565b600060018381548110611840576118406122b6565b60009182526020909120600b9091020160018101549091506001600160a01b0316331461187f5760405162461bcd60e51b81526004016104ef906122cc565b81816004015461188f919061253f565b6004820155600181015460028201546118b6916001600160a01b0391821691163085611c19565b604051829084907fa3af609bf46297028ce551832669030f9effef2b02606d02cbbcc40fe6b47c5590600090a3505050565b6000546001600160a01b031633146119125760405162461bcd60e51b81526004016104ef90612557565b80600554036119595760405162461bcd60e51b815260206004820152601360248201527253616d6520736c6970706167652076616c756560681b60448201526064016104ef565b6103e88111156119a45760405162461bcd60e51b81526020600482015260166024820152754d696e20736c69707061676520746f6f206c6172676560501b60448201526064016104ef565b600581905560405181907f26e620243c371810e2faba00f99cac6caabb6306f4ab41aa35a3e199b0fcc6e790600090a250565b6000546001600160a01b03163314611a015760405162461bcd60e51b81526004016104ef90612557565b6001600160a01b038116611a665760405162461bcd60e51b815260206004820152602660248201527f4f776e61626c653a206e6577206f776e657220697320746865207a65726f206160448201526564647265737360d01b60648201526084016104ef565b611a6f81611def565b50565b600060608260c0015183608001511015611ab8575050604080518082019091526011815270125b9cdd59999a58da595b9d08199d5b99607a1b6020820152600092909150565b6000836101400151118015611ad157508261014001513a115b15611b0857505060408051808201909152601181527047617320746f6f20657870656e7369766560781b6020820152600092909150565b6040808401516001600160a01b039081166000908152600460209081528382206060880151909316825291909152205460ff16611b76575050604080518082019091526016815275151bdad95b881c185a5c881b9bdd08185b1b1bddd95960521b6020820152600092909150565b5050604080516020810190915260008152600192909150565b6002546040516338ed173960e01b81526060916001600160a01b0316906338ed173990611bc890879087908790309042906004016125c2565b6000604051808303816000875af1158015611be7573d6000803e3d6000fd5b505050506040513d6000823e601f3d908101601f19168201604052611c0f91908101906123f6565b90505b9392505050565b6040516001600160a01b0380851660248301528316604482015260648101829052611c849085906323b872dd60e01b906084015b60408051601f198184030181529190526020810180516001600160e01b03166001600160e01b031990931692909217909152611e3f565b50505050565b7f00000000000000000000000000000000000000000000000000000000000000006001600160a01b0316826001600160a01b031603611dd657604051632e1a7d4d60e01b8152600481018290527f00000000000000000000000000000000000000000000000000000000000000006001600160a01b031690632e1a7d4d90602401600060405180830381600087803b158015611d2557600080fd5b505af1158015611d39573d6000803e3d6000fd5b505050506000836001600160a01b03168260405160006040518083038185875af1925050503d8060008114611d8a576040519150601f19603f3d011682016040523d82523d6000602084013e611d8f565b606091505b5050905080611c845760405162461bcd60e51b8152602060048201526013602482015272115512081d1c985b9cd9995c8819985a5b1959606a1b60448201526064016104ef565b611dea6001600160a01b0383168483611f11565b505050565b600080546001600160a01b038381166001600160a01b0319831681178455604051919092169283917f8be0079c531659141344cd1fd0a4f28419497f9722a3daafe3b4186f6b6457e09190a35050565b6000611e94826040518060400160405280602081526020017f5361666545524332303a206c6f772d6c6576656c2063616c6c206661696c6564815250856001600160a01b0316611f419092919063ffffffff16565b805190915015611dea5780806020019051810190611eb291906124e1565b611dea5760405162461bcd60e51b815260206004820152602a60248201527f5361666545524332303a204552433230206f7065726174696f6e20646964206e6044820152691bdd081cdd58d8d9595960b21b60648201526084016104ef565b6040516001600160a01b038316602482015260448101829052611dea90849063a9059cbb60e01b90606401611c4d565b6060611c0f848460008585843b611f9a5760405162461bcd60e51b815260206004820152601d60248201527f416464726573733a2063616c6c20746f206e6f6e2d636f6e747261637400000060448201526064016104ef565b600080866001600160a01b03168587604051611fb691906125fe565b60006040518083038185875af1925050503d8060008114611ff3576040519150601f19603f3d011682016040523d82523d6000602084013e611ff8565b606091505b5091509150612008828286612013565b979650505050505050565b60608315612022575081611c12565b8251156120325782518084602001fd5b8160405162461bcd60e51b81526004016104ef9190612350565b60008060006060848603121561206157600080fd5b505081359360208301359350604090920135919050565b60006020828403121561208a57600080fd5b5035919050565b80356001600160a01b03811681146120a857600080fd5b919050565b8015158114611a6f57600080fd5b6000806000606084860312156120d057600080fd5b6120d984612091565b92506120e760208501612091565b915060408401356120f7816120ad565b809150509250925092565b60008083601f84011261211457600080fd5b50813567ffffffffffffffff81111561212c57600080fd5b6020830191508360208260051b850101111561214757600080fd5b9250929050565b6000806000806000806060878903121561216757600080fd5b863567ffffffffffffffff8082111561217f57600080fd5b61218b8a838b01612102565b909850965060208901359150808211156121a457600080fd5b6121b08a838b01612102565b909650945060408901359150808211156121c957600080fd5b506121d689828a01612102565b979a9699509497509295939492505050565b600080600080600080600060e0888a03121561220357600080fd5b61220c88612091565b965061221a60208901612091565b96999698505050506040850135946060810135946080820135945060a0820135935060c0909101359150565b6000806040838503121561225957600080fd5b50508035926020909101359150565b6000806040838503121561227b57600080fd5b61228483612091565b915061229260208401612091565b90509250929050565b6000602082840312156122ad57600080fd5b611c1282612091565b634e487b7160e01b600052603260045260246000fd5b60208082526014908201527329b2b73232b91036bab9ba1031329037bbb732b960611b604082015260600190565b60208082526010908201526f14185d5cd8589b194e881c185d5cd95960821b604082015260600190565b60005b8381101561233f578181015183820152602001612327565b83811115611c845750506000910152565b602081526000825180602084015261236f816040850160208701612324565b601f01601f19169190910160400192915050565b634e487b7160e01b600052604160045260246000fd5b600081518084526020808501945080840160005b838110156123d25781516001600160a01b0316875295820195908201906001016123ad565b509495945050505050565b828152604060208201526000611c0f6040830184612399565b6000602080838503121561240957600080fd5b825167ffffffffffffffff8082111561242157600080fd5b818501915085601f83011261243557600080fd5b81518181111561244757612447612383565b8060051b604051601f19603f8301168101818110858211171561246c5761246c612383565b60405291825284820192508381018501918883111561248a57600080fd5b938501935b828510156124a85784518452938501939285019261248f565b98975050505050505050565b634e487b7160e01b600052601160045260246000fd5b6000828210156124dc576124dc6124b4565b500390565b6000602082840312156124f357600080fd5b8151611c12816120ad565b6000816000190483118215151615612518576125186124b4565b500290565b60008261253a57634e487b7160e01b600052601260045260246000fd5b500490565b60008219821115612552576125526124b4565b500190565b6020808252818101527f4f776e61626c653a2063616c6c6572206973206e6f7420746865206f776e6572604082015260600190565b60006020828403121561259e57600080fd5b8135611c12816120ad565b6000600182016125bb576125bb6124b4565b5060010190565b85815284602082015260a0604082015260006125e160a0830186612399565b6001600160a01b0394909416606083015250608001529392505050565b60008251612610818460208701612324565b919091019291505056fea2646970667358221220a2e9c31504e48769b257de33ace00b16be5b4f7964da8b44e2c471ff7510f21864736f6c634300080d0033",
    "sourcePath": "/Users/roguerotkosky/Development/DCA/contracts/DCACore2.sol",
    "compiler": {
        "name": "solc",
        "version": "0.8.13+commit.abaa5c0e"
    },
    "functionHashes": {
        "NATIVE_TOKEN()": "31f7d964",
        "allowedTokenPairs(address,address)": "a3849c26",
        "createPositionAndDeposit(address,address,uint256,uint256,uint256,uint256,uint256)": "5adfadbd",
        "deposit(uint256,uint256)": "e2bbb158",
        "depositETH(uint256)": "5358fbda",
        "executeDCA(uint256)": "1f7d5689",
        "executor()": "c34c08e5",
        "exit(uint256)": "7f8661a1",
        "minSlippage()": "c0677c47",
        "owner()": "8da5cb5b",
        "paused()": "5c975abb",
        "positions(uint256)": "99fbab88",
        "renounceOwnership()": "715018a6",
        "setAllowedTokenPair(address,address,bool)": "21f62550",
        "setAllowedTokenPairs(address[],address[],bool[])": "536b622b",
        "setMinSlippage(uint256)": "e3e01f9f",
        "transferOwnership(address)": "f2fde38b",
        "uniRouter()": "a0e47bf6",
        "updatePosition(uint256,uint256,uint256)": "0602e13a",
        "weth()": "3fc8cef3",
        "withdrawTokenIn(uint256,uint256)": "6c7e8e38",
        "withdrawTokenOut(uint256)": "5fc1fd01"
    },
    "gasEstimates": {
        "creation": {
            "codeDepositCost": "1961600",
            "executionCost": "infinite",
            "totalCost": "infinite"
        },
        "external": {
            "NATIVE_TOKEN()": "295",
            "allowedTokenPairs(address,address)": "infinite",
            "createPositionAndDeposit(address,address,uint256,uint256,uint256,uint256,uint256)": "infinite",
            "deposit(uint256,uint256)": "infinite",
            "depositETH(uint256)": "infinite",
            "executeDCA(uint256)": "infinite",
            "executor()": "2392",
            "exit(uint256)": "infinite",
            "minSlippage()": "2339",
            "owner()": "2387",
            "paused()": "2399",
            "positions(uint256)": "26092",
            "renounceOwnership()": "28137",
            "setAllowedTokenPair(address,address,bool)": "infinite",
            "setAllowedTokenPairs(address[],address[],bool[])": "infinite",
            "setMinSlippage(uint256)": "27880",
            "transferOwnership(address)": "28441",
            "uniRouter()": "2437",
            "updatePosition(uint256,uint256,uint256)": "50857",
            "weth()": "infinite",
            "withdrawTokenIn(uint256,uint256)": "infinite",
            "withdrawTokenOut(uint256)": "infinite"
        },
        "internal": {
            "_checkReadyDCA(struct IDCACore.Position memory)": "infinite",
            "_swap(uint256,uint256,address[] memory)": "infinite",
            "_transfer(address payable,address,uint256)": "infinite"
        }
    }
}