{
    "contractName": "DCACoreResolver",
    "abi": [
        {
            "inputs": [
                {
                    "internalType": "address",
                    "name": "_dcaCore",
                    "type": "address"
                },
                {
                    "internalType": "address",
                    "name": "_uniRouter",
                    "type": "address"
                }
            ],
            "stateMutability": "nonpayable",
            "type": "constructor"
        },
        {
            "inputs": [
                {
                    "internalType": "uint256",
                    "name": "_positionId",
                    "type": "uint256"
                }
            ],
            "name": "checkPositionExecutable",
            "outputs": [
                {
                    "internalType": "bool",
                    "name": "canExec",
                    "type": "bool"
                },
                {
                    "internalType": "bytes",
                    "name": "execPayload",
                    "type": "bytes"
                }
            ],
            "stateMutability": "view",
            "type": "function"
        },
        {
            "inputs": [],
            "name": "dcaCore",
            "outputs": [
                {
                    "internalType": "contract IDCACore",
                    "name": "",
                    "type": "address"
                }
            ],
            "stateMutability": "view",
            "type": "function"
        },
        {
            "inputs": [],
            "name": "owner",
            "outputs": [
                {
                    "internalType": "address",
                    "name": "",
                    "type": "address"
                }
            ],
            "stateMutability": "view",
            "type": "function"
        },
        {
            "inputs": [],
            "name": "uniRouter",
            "outputs": [
                {
                    "internalType": "contract IUniswapV2Router",
                    "name": "",
                    "type": "address"
                }
            ],
            "stateMutability": "view",
            "type": "function"
        }
    ],
    "bytecode": "608060405234801561001057600080fd5b50604051610a22380380610a2283398101604081905261002f9161008c565b600080546001600160a01b039384166001600160a01b03199182161790915560018054929093169181169190911790915560028054909116331790556100bf565b80516001600160a01b038116811461008757600080fd5b919050565b6000806040838503121561009f57600080fd5b6100a883610070565b91506100b660208401610070565b90509250929050565b610954806100ce6000396000f3fe608060405234801561001057600080fd5b506004361061004c5760003560e01c806319b8a5d8146100515780637c0ad03f1461007b5780638da5cb5b146100a6578063a0e47bf6146100b9575b600080fd5b61006461005f3660046103be565b6100cc565b604051610072929190610407565b60405180910390f35b60005461008e906001600160a01b031681565b6040516001600160a01b039091168152602001610072565b60025461008e906001600160a01b031681565b60015461008e906001600160a01b031681565b6000805460405163eb02c30160e01b81526004810184905260609183916001600160a01b039091169063eb02c30190602401600060405180830381865afa15801561011b573d6000803e3d6000fd5b505050506040513d6000823e601f3d908101601f19168201604052610143919081019061062c565b90508060e0015181610100015161015a9190610775565b42101561019857600060405180604001604052806012815260200171506f736974696f6e206e6f7420726561647960701b8152509250925050915091565b60008161014001511180156101b157508061014001513a115b156101ec5760006040518060400160405280601181526020017047617320746f6f20657870656e7369766560781b8152509250925050915091565b604080516002808252606082018352600195506000926020830190803683370190505090508160400151816000815181106102295761022961078d565b60200260200101906001600160a01b031690816001600160a01b0316815250508160600151816001815181106102615761026161078d565b6001600160a01b03928316602091820292909201015260015460c084015160405163d06ca61f60e01b8152600093929092169163d06ca61f916102a89186906004016107e7565b600060405180830381865afa1580156102c5573d6000803e3d6000fd5b505050506040513d6000823e601f3d908101601f191682016040526102ed9190810190610800565b905060006040518060400160405280612710866101200151856001815181106103185761031861078d565b602002602001015161032a9190610891565b61033491906108b0565b846001815181106103475761034761078d565b602002602001015161035991906108d2565b8152602001849052604051909150630c95fe2160e01b9061038090899084906024016108e9565b60408051601f198184030181529190526020810180516001600160e01b03166001600160e01b03199093169290921790915295979596505050505050565b6000602082840312156103d057600080fd5b5035919050565b60005b838110156103f25781810151838201526020016103da565b83811115610401576000848401525b50505050565b8215158152604060208201526000825180604084015261042e8160608501602087016103d7565b601f01601f1916919091016060019392505050565b634e487b7160e01b600052604160045260246000fd5b6040516060810167ffffffffffffffff8111828210171561047c5761047c610443565b60405290565b6040516101c0810167ffffffffffffffff8111828210171561047c5761047c610443565b604051601f8201601f1916810167ffffffffffffffff811182821017156104cf576104cf610443565b604052919050565b80516001600160a01b03811681146104ee57600080fd5b919050565b805180151581146104ee57600080fd5b600082601f83011261051457600080fd5b815167ffffffffffffffff81111561052e5761052e610443565b610541601f8201601f19166020016104a6565b81815284602083860101111561055657600080fd5b6105678260208301602087016103d7565b949350505050565b600067ffffffffffffffff82111561058957610589610443565b5060051b60200190565b600082601f8301126105a457600080fd5b815160206105b96105b48361056f565b6104a6565b828152606092830285018201928282019190878511156105d857600080fd5b8387015b8581101561061f5781818a0312156105f45760008081fd5b6105fc610459565b8151815285820151868201526040808301519082015284529284019281016105dc565b5090979650505050505050565b60006020828403121561063e57600080fd5b815167ffffffffffffffff8082111561065657600080fd5b908301906101c0828603121561066b57600080fd5b610673610482565b82518152610683602084016104d7565b6020820152610694604084016104d7565b60408201526106a5606084016104d7565b60608201526080830151608082015260a083015160a082015260c083015160c082015260e083015160e08201526101008084015181830152506101208084015181830152506101408084015181830152506101606107048185016104f3565b90820152610180838101518381111561071c57600080fd5b61072888828701610503565b8284015250506101a0808401518381111561074257600080fd5b61074e88828701610593565b918301919091525095945050505050565b634e487b7160e01b600052601160045260246000fd5b600082198211156107885761078861075f565b500190565b634e487b7160e01b600052603260045260246000fd5b600081518084526020808501945080840160005b838110156107dc5781516001600160a01b0316875295820195908201906001016107b7565b509495945050505050565b82815260406020820152600061056760408301846107a3565b6000602080838503121561081357600080fd5b825167ffffffffffffffff81111561082a57600080fd5b8301601f8101851361083b57600080fd5b80516108496105b48261056f565b81815260059190911b8201830190838101908783111561086857600080fd5b928401925b828410156108865783518252928401929084019061086d565b979650505050505050565b60008160001904831182151516156108ab576108ab61075f565b500290565b6000826108cd57634e487b7160e01b600052601260045260246000fd5b500490565b6000828210156108e4576108e461075f565b500390565b8281526040602082015281516040820152600060208301516040606084015261091560808401826107a3565b9594505050505056fea2646970667358221220b7f3b6cc3cd8d0519737c79acfbb4847d792a2c9e300fd11d1e29694fb6acf0b64736f6c634300080d0033",
    "sourcePath": "/Users/roguerotkosky/Development/DCA/contracts/DCACoreResolver.sol",
    "compiler": {
        "name": "solc",
        "version": "0.8.13+commit.abaa5c0e"
    },
    "functionHashes": {
        "checkPositionExecutable(uint256)": "19b8a5d8",
        "dcaCore()": "7c0ad03f",
        "owner()": "8da5cb5b",
        "uniRouter()": "a0e47bf6"
    },
    "gasEstimates": {
        "creation": {
            "codeDepositCost": "477600",
            "executionCost": "infinite",
            "totalCost": "infinite"
        },
        "external": {
            "checkPositionExecutable(uint256)": "infinite",
            "dcaCore()": "2337",
            "owner()": "2359",
            "uniRouter()": "2381"
        }
    }
}